{
  "_format": "hh-sol-artifact-1",
  "contractName": "Factory",
  "sourceName": "contracts/Factory.sol",
  "abi": [
    {
      "inputs": [
        {
          "internalType": "string",
          "name": "name",
          "type": "string"
        },
        {
          "internalType": "string",
          "name": "symbol",
          "type": "string"
        }
      ],
      "name": "openCollection",
      "outputs": [
        {
          "internalType": "address",
          "name": "userContract",
          "type": "address"
        }
      ],
      "stateMutability": "nonpayable",
      "type": "function"
    }
  ],
  "bytecode": "0x608060405234801561001057600080fd5b506133d7806100206000396000f3fe60806040523480156200001157600080fd5b50600436106200002e5760003560e01c806307c279f61462000033575b600080fd5b6200005160048036038101906200004b91906200035d565b62000069565b60405162000060919062000427565b60405180910390f35b600080600160003373ffffffffffffffffffffffffffffffffffffffff1673ffffffffffffffffffffffffffffffffffffffff168152602001908152602001600020549050838333604051620000bf90620001d9565b620000cd93929190620004d7565b604051809103906000f080158015620000ea573d6000803e3d6000fd5b509150816000803373ffffffffffffffffffffffffffffffffffffffff1673ffffffffffffffffffffffffffffffffffffffff168152602001908152602001600020600083815260200190815260200160002060006101000a81548173ffffffffffffffffffffffffffffffffffffffff021916908373ffffffffffffffffffffffffffffffffffffffff160217905550600160003373ffffffffffffffffffffffffffffffffffffffff1673ffffffffffffffffffffffffffffffffffffffff1681526020019081526020016000206000815480929190620001cd906200055b565b91905055505092915050565b612df880620005aa83390190565b6000604051905090565b600080fd5b600080fd5b600080fd5b600080fd5b6000601f19601f8301169050919050565b7f4e487b7100000000000000000000000000000000000000000000000000000000600052604160045260246000fd5b620002508262000205565b810181811067ffffffffffffffff8211171562000272576200027162000216565b5b80604052505050565b600062000287620001e7565b905062000295828262000245565b919050565b600067ffffffffffffffff821115620002b857620002b762000216565b5b620002c38262000205565b9050602081019050919050565b82818337600083830152505050565b6000620002f6620002f0846200029a565b6200027b565b90508281526020810184848401111562000315576200031462000200565b5b62000322848285620002d0565b509392505050565b600082601f830112620003425762000341620001fb565b5b813562000354848260208601620002df565b91505092915050565b60008060408385031215620003775762000376620001f1565b5b600083013567ffffffffffffffff811115620003985762000397620001f6565b5b620003a6858286016200032a565b925050602083013567ffffffffffffffff811115620003ca57620003c9620001f6565b5b620003d8858286016200032a565b9150509250929050565b600073ffffffffffffffffffffffffffffffffffffffff82169050919050565b60006200040f82620003e2565b9050919050565b620004218162000402565b82525050565b60006020820190506200043e600083018462000416565b92915050565b600081519050919050565b600082825260208201905092915050565b60005b838110156200048057808201518184015260208101905062000463565b8381111562000490576000848401525b50505050565b6000620004a38262000444565b620004af81856200044f565b9350620004c181856020860162000460565b620004cc8162000205565b840191505092915050565b60006060820190508181036000830152620004f3818662000496565b9050818103602083015262000509818562000496565b90506200051a604083018462000416565b949350505050565b7f4e487b7100000000000000000000000000000000000000000000000000000000600052601160045260246000fd5b6000819050919050565b6000620005688262000551565b91507fffffffffffffffffffffffffffffffffffffffffffffffffffffffffffffffff8214156200059e576200059d62000522565b5b60018201905091905056fe60806040523480156200001157600080fd5b5060405162002df838038062002df8833981810160405281019062000037919062000369565b8282816000908051906020019062000051929190620000b7565b5080600190805190602001906200006a929190620000b7565b50505080600860006101000a81548173ffffffffffffffffffffffffffffffffffffffff021916908373ffffffffffffffffffffffffffffffffffffffff16021790555050505062000468565b828054620000c59062000432565b90600052602060002090601f016020900481019282620000e9576000855562000135565b82601f106200010457805160ff191683800117855562000135565b8280016001018555821562000135579182015b828111156200013457825182559160200191906001019062000117565b5b50905062000144919062000148565b5090565b5b808211156200016357600081600090555060010162000149565b5090565b6000604051905090565b600080fd5b600080fd5b600080fd5b600080fd5b6000601f19601f8301169050919050565b7f4e487b7100000000000000000000000000000000000000000000000000000000600052604160045260246000fd5b620001d08262000185565b810181811067ffffffffffffffff82111715620001f257620001f162000196565b5b80604052505050565b60006200020762000167565b9050620002158282620001c5565b919050565b600067ffffffffffffffff82111562000238576200023762000196565b5b620002438262000185565b9050602081019050919050565b60005b838110156200027057808201518184015260208101905062000253565b8381111562000280576000848401525b50505050565b60006200029d62000297846200021a565b620001fb565b905082815260208101848484011115620002bc57620002bb62000180565b5b620002c984828562000250565b509392505050565b600082601f830112620002e957620002e86200017b565b5b8151620002fb84826020860162000286565b91505092915050565b600073ffffffffffffffffffffffffffffffffffffffff82169050919050565b6000620003318262000304565b9050919050565b620003438162000324565b81146200034f57600080fd5b50565b600081519050620003638162000338565b92915050565b60008060006060848603121562000385576200038462000171565b5b600084015167ffffffffffffffff811115620003a657620003a562000176565b5b620003b486828701620002d1565b935050602084015167ffffffffffffffff811115620003d857620003d762000176565b5b620003e686828701620002d1565b9250506040620003f98682870162000352565b9150509250925092565b7f4e487b7100000000000000000000000000000000000000000000000000000000600052602260045260246000fd5b600060028204905060018216806200044b57607f821691505b6020821081141562000462576200046162000403565b5b50919050565b61298080620004786000396000f3fe608060405234801561001057600080fd5b50600436106100f55760003560e01c806370a0823111610097578063c87b56dd11610066578063c87b56dd14610282578063d0def521146102b2578063e985e9c5146102ce578063f2fde38b146102fe576100f5565b806370a08231146101fc57806395d89b411461022c578063a22cb4651461024a578063b88d4fde14610266576100f5565b8063095ea7b3116100d3578063095ea7b31461017857806323b872dd1461019457806342842e0e146101b05780636352211e146101cc576100f5565b806301ffc9a7146100fa57806306fdde031461012a578063081812fc14610148575b600080fd5b610114600480360381019061010f9190611aa8565b61031a565b6040516101219190611af0565b60405180910390f35b6101326103fc565b60405161013f9190611ba4565b60405180910390f35b610162600480360381019061015d9190611bfc565b61048e565b60405161016f9190611c6a565b60405180910390f35b610192600480360381019061018d9190611cb1565b6104d4565b005b6101ae60048036038101906101a99190611cf1565b6105ec565b005b6101ca60048036038101906101c59190611cf1565b61064c565b005b6101e660048036038101906101e19190611bfc565b61066c565b6040516101f39190611c6a565b60405180910390f35b61021660048036038101906102119190611d44565b6106f3565b6040516102239190611d80565b60405180910390f35b6102346107ab565b6040516102419190611ba4565b60405180910390f35b610264600480360381019061025f9190611dc7565b61083d565b005b610280600480360381019061027b9190611f3c565b610853565b005b61029c60048036038101906102979190611bfc565b6108b5565b6040516102a99190611ba4565b60405180910390f35b6102cc60048036038101906102c7919061201f565b6109c8565b005b6102e860048036038101906102e3919061207f565b610a5a565b6040516102f59190611af0565b60405180910390f35b61031860048036038101906103139190611d44565b610aee565b005b60007f80ac58cd000000000000000000000000000000000000000000000000000000007bffffffffffffffffffffffffffffffffffffffffffffffffffffffff1916827bffffffffffffffffffffffffffffffffffffffffffffffffffffffff191614806103e557507f5b5e139f000000000000000000000000000000000000000000000000000000007bffffffffffffffffffffffffffffffffffffffffffffffffffffffff1916827bffffffffffffffffffffffffffffffffffffffffffffffffffffffff1916145b806103f557506103f482610b41565b5b9050919050565b60606000805461040b906120ee565b80601f0160208091040260200160405190810160405280929190818152602001828054610437906120ee565b80156104845780601f1061045957610100808354040283529160200191610484565b820191906000526020600020905b81548152906001019060200180831161046757829003601f168201915b5050505050905090565b600061049982610bab565b6004600083815260200190815260200160002060009054906101000a900473ffffffffffffffffffffffffffffffffffffffff169050919050565b60006104df8261066c565b90508073ffffffffffffffffffffffffffffffffffffffff168373ffffffffffffffffffffffffffffffffffffffff161415610550576040517f08c379a000000000000000000000000000000000000000000000000000000000815260040161054790612192565b60405180910390fd5b8073ffffffffffffffffffffffffffffffffffffffff1661056f610bf6565b73ffffffffffffffffffffffffffffffffffffffff16148061059e575061059d81610598610bf6565b610a5a565b5b6105dd576040517f08c379a00000000000000000000000000000000000000000000000000000000081526004016105d490612224565b60405180910390fd5b6105e78383610bfe565b505050565b6105fd6105f7610bf6565b82610cb7565b61063c576040517f08c379a0000000000000000000000000000000000000000000000000000000008152600401610633906122b6565b60405180910390fd5b610647838383610d4c565b505050565b61066783838360405180602001604052806000815250610853565b505050565b60008061067883611046565b9050600073ffffffffffffffffffffffffffffffffffffffff168173ffffffffffffffffffffffffffffffffffffffff1614156106ea576040517f08c379a00000000000000000000000000000000000000000000000000000000081526004016106e190612322565b60405180910390fd5b80915050919050565b60008073ffffffffffffffffffffffffffffffffffffffff168273ffffffffffffffffffffffffffffffffffffffff161415610764576040517f08c379a000000000000000000000000000000000000000000000000000000000815260040161075b906123b4565b60405180910390fd5b600360008373ffffffffffffffffffffffffffffffffffffffff1673ffffffffffffffffffffffffffffffffffffffff168152602001908152602001600020549050919050565b6060600180546107ba906120ee565b80601f01602080910402602001604051908101604052809291908181526020018280546107e6906120ee565b80156108335780601f1061080857610100808354040283529160200191610833565b820191906000526020600020905b81548152906001019060200180831161081657829003601f168201915b5050505050905090565b61084f610848610bf6565b8383611083565b5050565b61086461085e610bf6565b83610cb7565b6108a3576040517f08c379a000000000000000000000000000000000000000000000000000000000815260040161089a906122b6565b60405180910390fd5b6108af848484846111f0565b50505050565b60606108c082610bab565b60006006600084815260200190815260200160002080546108e0906120ee565b80601f016020809104026020016040519081016040528092919081815260200182805461090c906120ee565b80156109595780601f1061092e57610100808354040283529160200191610959565b820191906000526020600020905b81548152906001019060200180831161093c57829003601f168201915b50505050509050600061096a61124c565b90506000815114156109805781925050506109c3565b6000825111156109b557808260405160200161099d929190612410565b604051602081830303815290604052925050506109c3565b6109be84611263565b925050505b919050565b33600854146109d7576004601cfd5b6109e8836109e36112cb565b6112d5565b610a3d6109f36112cb565b83838080601f016020809104026020016040519081016040528093929190818152602001838380828437600081840152601f19601f820116905080830192505050505050506114f3565b60076000815480929190610a5090612463565b9190505550505050565b6000600560008473ffffffffffffffffffffffffffffffffffffffff1673ffffffffffffffffffffffffffffffffffffffff16815260200190815260200160002060008373ffffffffffffffffffffffffffffffffffffffff1673ffffffffffffffffffffffffffffffffffffffff16815260200190815260200160002060009054906101000a900460ff16905092915050565b3360085414610afd576004601cfd5b80600860006101000a81548173ffffffffffffffffffffffffffffffffffffffff021916908373ffffffffffffffffffffffffffffffffffffffff16021790555050565b60007f01ffc9a7000000000000000000000000000000000000000000000000000000007bffffffffffffffffffffffffffffffffffffffffffffffffffffffff1916827bffffffffffffffffffffffffffffffffffffffffffffffffffffffff1916149050919050565b610bb481611567565b610bf3576040517f08c379a0000000000000000000000000000000000000000000000000000000008152600401610bea90612322565b60405180910390fd5b50565b600033905090565b816004600083815260200190815260200160002060006101000a81548173ffffffffffffffffffffffffffffffffffffffff021916908373ffffffffffffffffffffffffffffffffffffffff160217905550808273ffffffffffffffffffffffffffffffffffffffff16610c718361066c565b73ffffffffffffffffffffffffffffffffffffffff167f8c5be1e5ebec7d5bd14f71427d1e84f3dd0314c0f7b2291e5b200ac8c7c3b92560405160405180910390a45050565b600080610cc38361066c565b90508073ffffffffffffffffffffffffffffffffffffffff168473ffffffffffffffffffffffffffffffffffffffff161480610d055750610d048185610a5a565b5b80610d4357508373ffffffffffffffffffffffffffffffffffffffff16610d2b8461048e565b73ffffffffffffffffffffffffffffffffffffffff16145b91505092915050565b8273ffffffffffffffffffffffffffffffffffffffff16610d6c8261066c565b73ffffffffffffffffffffffffffffffffffffffff1614610dc2576040517f08c379a0000000000000000000000000000000000000000000000000000000008152600401610db99061251e565b60405180910390fd5b600073ffffffffffffffffffffffffffffffffffffffff168273ffffffffffffffffffffffffffffffffffffffff161415610e32576040517f08c379a0000000000000000000000000000000000000000000000000000000008152600401610e29906125b0565b60405180910390fd5b610e3f83838360016115a8565b8273ffffffffffffffffffffffffffffffffffffffff16610e5f8261066c565b73ffffffffffffffffffffffffffffffffffffffff1614610eb5576040517f08c379a0000000000000000000000000000000000000000000000000000000008152600401610eac9061251e565b60405180910390fd5b6004600082815260200190815260200160002060006101000a81549073ffffffffffffffffffffffffffffffffffffffff02191690556001600360008573ffffffffffffffffffffffffffffffffffffffff1673ffffffffffffffffffffffffffffffffffffffff168152602001908152602001600020600082825403925050819055506001600360008473ffffffffffffffffffffffffffffffffffffffff1673ffffffffffffffffffffffffffffffffffffffff16815260200190815260200160002060008282540192505081905550816002600083815260200190815260200160002060006101000a81548173ffffffffffffffffffffffffffffffffffffffff021916908373ffffffffffffffffffffffffffffffffffffffff160217905550808273ffffffffffffffffffffffffffffffffffffffff168473ffffffffffffffffffffffffffffffffffffffff167fddf252ad1be2c89b69c2b068fc378daa952ba7f163c4a11628f55a4df523b3ef60405160405180910390a461104183838360016115ae565b505050565b60006002600083815260200190815260200160002060009054906101000a900473ffffffffffffffffffffffffffffffffffffffff169050919050565b8173ffffffffffffffffffffffffffffffffffffffff168373ffffffffffffffffffffffffffffffffffffffff1614156110f2576040517f08c379a00000000000000000000000000000000000000000000000000000000081526004016110e99061261c565b60405180910390fd5b80600560008573ffffffffffffffffffffffffffffffffffffffff1673ffffffffffffffffffffffffffffffffffffffff16815260200190815260200160002060008473ffffffffffffffffffffffffffffffffffffffff1673ffffffffffffffffffffffffffffffffffffffff16815260200190815260200160002060006101000a81548160ff0219169083151502179055508173ffffffffffffffffffffffffffffffffffffffff168373ffffffffffffffffffffffffffffffffffffffff167f17307eab39ab6107e8899845ad3d59bd9653f200f220920489ca2b5937696c31836040516111e39190611af0565b60405180910390a3505050565b6111fb848484610d4c565b611207848484846115b4565b611246576040517f08c379a000000000000000000000000000000000000000000000000000000000815260040161123d906126ae565b60405180910390fd5b50505050565b606060405180602001604052806000815250905090565b606061126e82610bab565b600061127861124c565b9050600081511161129857604051806020016040528060008152506112c3565b806112a28461174b565b6040516020016112b3929190612410565b6040516020818303038152906040525b915050919050565b6000600754905090565b600073ffffffffffffffffffffffffffffffffffffffff168273ffffffffffffffffffffffffffffffffffffffff161415611345576040517f08c379a000000000000000000000000000000000000000000000000000000000815260040161133c9061271a565b60405180910390fd5b61134e81611567565b1561138e576040517f08c379a000000000000000000000000000000000000000000000000000000000815260040161138590612786565b60405180910390fd5b61139c6000838360016115a8565b6113a581611567565b156113e5576040517f08c379a00000000000000000000000000000000000000000000000000000000081526004016113dc90612786565b60405180910390fd5b6001600360008473ffffffffffffffffffffffffffffffffffffffff1673ffffffffffffffffffffffffffffffffffffffff16815260200190815260200160002060008282540192505081905550816002600083815260200190815260200160002060006101000a81548173ffffffffffffffffffffffffffffffffffffffff021916908373ffffffffffffffffffffffffffffffffffffffff160217905550808273ffffffffffffffffffffffffffffffffffffffff16600073ffffffffffffffffffffffffffffffffffffffff167fddf252ad1be2c89b69c2b068fc378daa952ba7f163c4a11628f55a4df523b3ef60405160405180910390a46114ef6000838360016115ae565b5050565b6114fc82611567565b61153b576040517f08c379a000000000000000000000000000000000000000000000000000000000815260040161153290612818565b60405180910390fd5b80600660008481526020019081526020016000209080519060200190611562929190611999565b505050565b60008073ffffffffffffffffffffffffffffffffffffffff1661158983611046565b73ffffffffffffffffffffffffffffffffffffffff1614159050919050565b50505050565b50505050565b60006115d58473ffffffffffffffffffffffffffffffffffffffff16611823565b1561173e578373ffffffffffffffffffffffffffffffffffffffff1663150b7a026115fe610bf6565b8786866040518563ffffffff1660e01b8152600401611620949392919061288d565b602060405180830381600087803b15801561163a57600080fd5b505af192505050801561166b57506040513d601f19601f8201168201806040525081019061166891906128ee565b60015b6116ee573d806000811461169b576040519150601f19603f3d011682016040523d82523d6000602084013e6116a0565b606091505b506000815114156116e6576040517f08c379a00000000000000000000000000000000000000000000000000000000081526004016116dd906126ae565b60405180910390fd5b805181602001fd5b63150b7a0260e01b7bffffffffffffffffffffffffffffffffffffffffffffffffffffffff1916817bffffffffffffffffffffffffffffffffffffffffffffffffffffffff191614915050611743565b600190505b949350505050565b60606000600161175a84611846565b01905060008167ffffffffffffffff81111561177957611778611e11565b5b6040519080825280601f01601f1916602001820160405280156117ab5781602001600182028036833780820191505090505b509050600082602001820190505b600115611818578080600190039150507f3031323334353637383961626364656600000000000000000000000000000000600a86061a8153600a85816118025761180161291b565b5b049450600085141561181357611818565b6117b9565b819350505050919050565b6000808273ffffffffffffffffffffffffffffffffffffffff163b119050919050565b600080600090507a184f03e93ff9f4daa797ed6e38ed64bf6a1f01000000000000000083106118a4577a184f03e93ff9f4daa797ed6e38ed64bf6a1f010000000000000000838161189a5761189961291b565b5b0492506040810190505b6d04ee2d6d415b85acef810000000083106118e1576d04ee2d6d415b85acef810000000083816118d7576118d661291b565b5b0492506020810190505b662386f26fc10000831061191057662386f26fc1000083816119065761190561291b565b5b0492506010810190505b6305f5e1008310611939576305f5e100838161192f5761192e61291b565b5b0492506008810190505b612710831061195e5761271083816119545761195361291b565b5b0492506004810190505b6064831061198157606483816119775761197661291b565b5b0492506002810190505b600a8310611990576001810190505b80915050919050565b8280546119a5906120ee565b90600052602060002090601f0160209004810192826119c75760008555611a0e565b82601f106119e057805160ff1916838001178555611a0e565b82800160010185558215611a0e579182015b82811115611a0d5782518255916020019190600101906119f2565b5b509050611a1b9190611a1f565b5090565b5b80821115611a38576000816000905550600101611a20565b5090565b6000604051905090565b600080fd5b600080fd5b60007fffffffff0000000000000000000000000000000000000000000000000000000082169050919050565b611a8581611a50565b8114611a9057600080fd5b50565b600081359050611aa281611a7c565b92915050565b600060208284031215611abe57611abd611a46565b5b6000611acc84828501611a93565b91505092915050565b60008115159050919050565b611aea81611ad5565b82525050565b6000602082019050611b056000830184611ae1565b92915050565b600081519050919050565b600082825260208201905092915050565b60005b83811015611b45578082015181840152602081019050611b2a565b83811115611b54576000848401525b50505050565b6000601f19601f8301169050919050565b6000611b7682611b0b565b611b808185611b16565b9350611b90818560208601611b27565b611b9981611b5a565b840191505092915050565b60006020820190508181036000830152611bbe8184611b6b565b905092915050565b6000819050919050565b611bd981611bc6565b8114611be457600080fd5b50565b600081359050611bf681611bd0565b92915050565b600060208284031215611c1257611c11611a46565b5b6000611c2084828501611be7565b91505092915050565b600073ffffffffffffffffffffffffffffffffffffffff82169050919050565b6000611c5482611c29565b9050919050565b611c6481611c49565b82525050565b6000602082019050611c7f6000830184611c5b565b92915050565b611c8e81611c49565b8114611c9957600080fd5b50565b600081359050611cab81611c85565b92915050565b60008060408385031215611cc857611cc7611a46565b5b6000611cd685828601611c9c565b9250506020611ce785828601611be7565b9150509250929050565b600080600060608486031215611d0a57611d09611a46565b5b6000611d1886828701611c9c565b9350506020611d2986828701611c9c565b9250506040611d3a86828701611be7565b9150509250925092565b600060208284031215611d5a57611d59611a46565b5b6000611d6884828501611c9c565b91505092915050565b611d7a81611bc6565b82525050565b6000602082019050611d956000830184611d71565b92915050565b611da481611ad5565b8114611daf57600080fd5b50565b600081359050611dc181611d9b565b92915050565b60008060408385031215611dde57611ddd611a46565b5b6000611dec85828601611c9c565b9250506020611dfd85828601611db2565b9150509250929050565b600080fd5b600080fd5b7f4e487b7100000000000000000000000000000000000000000000000000000000600052604160045260246000fd5b611e4982611b5a565b810181811067ffffffffffffffff82111715611e6857611e67611e11565b5b80604052505050565b6000611e7b611a3c565b9050611e878282611e40565b919050565b600067ffffffffffffffff821115611ea757611ea6611e11565b5b611eb082611b5a565b9050602081019050919050565b82818337600083830152505050565b6000611edf611eda84611e8c565b611e71565b905082815260208101848484011115611efb57611efa611e0c565b5b611f06848285611ebd565b509392505050565b600082601f830112611f2357611f22611e07565b5b8135611f33848260208601611ecc565b91505092915050565b60008060008060808587031215611f5657611f55611a46565b5b6000611f6487828801611c9c565b9450506020611f7587828801611c9c565b9350506040611f8687828801611be7565b925050606085013567ffffffffffffffff811115611fa757611fa6611a4b565b5b611fb387828801611f0e565b91505092959194509250565b600080fd5b600080fd5b60008083601f840112611fdf57611fde611e07565b5b8235905067ffffffffffffffff811115611ffc57611ffb611fbf565b5b60208301915083600182028301111561201857612017611fc4565b5b9250929050565b60008060006040848603121561203857612037611a46565b5b600061204686828701611c9c565b935050602084013567ffffffffffffffff81111561206757612066611a4b565b5b61207386828701611fc9565b92509250509250925092565b6000806040838503121561209657612095611a46565b5b60006120a485828601611c9c565b92505060206120b585828601611c9c565b9150509250929050565b7f4e487b7100000000000000000000000000000000000000000000000000000000600052602260045260246000fd5b6000600282049050600182168061210657607f821691505b6020821081141561211a576121196120bf565b5b50919050565b7f4552433732313a20617070726f76616c20746f2063757272656e74206f776e6560008201527f7200000000000000000000000000000000000000000000000000000000000000602082015250565b600061217c602183611b16565b915061218782612120565b604082019050919050565b600060208201905081810360008301526121ab8161216f565b9050919050565b7f4552433732313a20617070726f76652063616c6c6572206973206e6f7420746f60008201527f6b656e206f776e6572206f7220617070726f76656420666f7220616c6c000000602082015250565b600061220e603d83611b16565b9150612219826121b2565b604082019050919050565b6000602082019050818103600083015261223d81612201565b9050919050565b7f4552433732313a2063616c6c6572206973206e6f7420746f6b656e206f776e6560008201527f72206f7220617070726f76656400000000000000000000000000000000000000602082015250565b60006122a0602d83611b16565b91506122ab82612244565b604082019050919050565b600060208201905081810360008301526122cf81612293565b9050919050565b7f4552433732313a20696e76616c696420746f6b656e2049440000000000000000600082015250565b600061230c601883611b16565b9150612317826122d6565b602082019050919050565b6000602082019050818103600083015261233b816122ff565b9050919050565b7f4552433732313a2061646472657373207a65726f206973206e6f74206120766160008201527f6c6964206f776e65720000000000000000000000000000000000000000000000602082015250565b600061239e602983611b16565b91506123a982612342565b604082019050919050565b600060208201905081810360008301526123cd81612391565b9050919050565b600081905092915050565b60006123ea82611b0b565b6123f481856123d4565b9350612404818560208601611b27565b80840191505092915050565b600061241c82856123df565b915061242882846123df565b91508190509392505050565b7f4e487b7100000000000000000000000000000000000000000000000000000000600052601160045260246000fd5b600061246e82611bc6565b91507fffffffffffffffffffffffffffffffffffffffffffffffffffffffffffffffff8214156124a1576124a0612434565b5b600182019050919050565b7f4552433732313a207472616e736665722066726f6d20696e636f72726563742060008201527f6f776e6572000000000000000000000000000000000000000000000000000000602082015250565b6000612508602583611b16565b9150612513826124ac565b604082019050919050565b60006020820190508181036000830152612537816124fb565b9050919050565b7f4552433732313a207472616e7366657220746f20746865207a65726f2061646460008201527f7265737300000000000000000000000000000000000000000000000000000000602082015250565b600061259a602483611b16565b91506125a58261253e565b604082019050919050565b600060208201905081810360008301526125c98161258d565b9050919050565b7f4552433732313a20617070726f766520746f2063616c6c657200000000000000600082015250565b6000612606601983611b16565b9150612611826125d0565b602082019050919050565b60006020820190508181036000830152612635816125f9565b9050919050565b7f4552433732313a207472616e7366657220746f206e6f6e20455243373231526560008201527f63656976657220696d706c656d656e7465720000000000000000000000000000602082015250565b6000612698603283611b16565b91506126a38261263c565b604082019050919050565b600060208201905081810360008301526126c78161268b565b9050919050565b7f4552433732313a206d696e7420746f20746865207a65726f2061646472657373600082015250565b6000612704602083611b16565b915061270f826126ce565b602082019050919050565b60006020820190508181036000830152612733816126f7565b9050919050565b7f4552433732313a20746f6b656e20616c7265616479206d696e74656400000000600082015250565b6000612770601c83611b16565b915061277b8261273a565b602082019050919050565b6000602082019050818103600083015261279f81612763565b9050919050565b7f45524337323155524953746f726167653a2055524920736574206f66206e6f6e60008201527f6578697374656e7420746f6b656e000000000000000000000000000000000000602082015250565b6000612802602e83611b16565b915061280d826127a6565b604082019050919050565b60006020820190508181036000830152612831816127f5565b9050919050565b600081519050919050565b600082825260208201905092915050565b600061285f82612838565b6128698185612843565b9350612879818560208601611b27565b61288281611b5a565b840191505092915050565b60006080820190506128a26000830187611c5b565b6128af6020830186611c5b565b6128bc6040830185611d71565b81810360608301526128ce8184612854565b905095945050505050565b6000815190506128e881611a7c565b92915050565b60006020828403121561290457612903611a46565b5b6000612912848285016128d9565b91505092915050565b7f4e487b7100000000000000000000000000000000000000000000000000000000600052601260045260246000fdfea2646970667358221220b93d8fa79111d01f029b445d87606b856ffc71ec1cf211287d792cfa9cd1b7ab64736f6c63430008090033a26469706673582212208986adad93fb4bda3686224d48ccaf4c3f561990c586bd827a03ec3889b98f8b64736f6c63430008090033",
  "linkReferences": {},
  "deployedLinkReferences": {}
}